:0400000007EF00F016
:0A0008006F820BED08F063EF13F0B8
:10100000003738392F3435362A3132332D23303DED
:051010002B2569000022
:101016000600FACF63F0FBCF64F0D9CF65F0DACFE4
:1010260066F0F3CF67F0F4CF68F0F2AA1DEF08F090
:101036001FEF08F028EF08F0F2A424EF08F026EFDF
:1010460008F028EF08F0E0EC13F0F2A82DEF08F016
:101056002FEF08F038EF08F0F2A234EF08F036EF81
:1010660008F038EF08F05BEC14F0F0A63DEF08F05E
:101076003FEF08F048EF08F0F0A044EF08F046EF25
:1010860008F048EF08F044EC14F0F0A84DEF08F033
:101096004FEF08F058EF08F0F0A254EF08F056EFC3
:1010A60008F058EF08F02DEC14F0F2A65DEF08F00A
:1010B6005FEF08F07AEF08F0F2A064EF08F066EF51
:1010C60008F07AEF08F081A86BEF08F06DEF08F0F2
:1010D6007AEF08F04404D8A473EF08F075EF08F02F
:1010E6007AEF08F0000E446E000EB4EC14F0F2A68F
:1010F6007FEF08F081EF08F09CEF08F0F2A086EF92
:1011060008F088EF08F09CEF08F081B88DEF08F042
:101116008FEF08F09CEF08F04450D8A495EF08F044
:1011260097EF08F09CEF08F0010E446E010EB4EC48
:1011360014F0F2A6A1EF08F0A3EF08F0BEEF08F056
:10114600F2A0A8EF08F0AAEF08F0BEEF08F081AA17
:10115600AFEF08F0B1EF08F0BEEF08F04304D8A4F3
:10116600B7EF08F0B9EF08F0BEEF08F0000E436ED7
:10117600000E9EEC14F0F2A6C3EF08F0C5EF08F0DF
:10118600E0EF08F0F2A0CAEF08F0CCEF08F0E0EFCD
:1011960008F081BAD1EF08F0D3EF08F0E0EF08F0DD
:1011A6004350D8A4D9EF08F0DBEF08F0E0EF08F0E1
:1011B600010E436E010E9EEC14F0F2A6E5EF08F068
:1011C600E7EF08F002EF09F0F2A0ECEF08F0EEEF1F
:1011D60008F002EF09F081ACF3EF08F0F5EF08F044
:1011E60002EF09F04204D8A4FBEF08F0FDEF08F087
:1011F60002EF09F0000E426E000E88EC14F0F2A623
:1012060007EF09F009EF09F024EF09F0F2A00EEF5D
:1012160009F010EF09F024EF09F081BC15EF09F091
:1012260017EF09F024EF09F04250D8A41DEF09F09A
:101236001FEF09F024EF09F0010E426E010E88EC53
:1012460014F0F2A629EF09F02BEF09F046EF09F0AA
:10125600F2A030EF09F032EF09F046EF09F081AE67
:1012660037EF09F039EF09F046EF09F04104D8A449
:101276003FEF09F041EF09F046EF09F0000E416E2D
:10128600000E72EC14F0F2A64BEF09F04DEF09F0E8
:1012960068EF09F0F2A052EF09F054EF09F068EF99
:1012A60009F081BE59EF09F05BEF09F068EF09F02C
:1012B6004150D8A461EF09F063EF09F068EF09F037
:1012C600010E416E010E72EC14F068C0F4FF67C0A7
:1012D600F3FF66C0DAFF65C0D9FF64C0FBFF63C0D9
:1012E600FAFF6F9211000001BF6F530E696E000E78
:1012F6006A6E010E6B6EDCEC0CF0496E4A0E000154
:10130600B96F000EBA6FBFC069F06A6A000E6C6EE4
:101316000A0E6B6E5EEC0FF069500001BB6F28EC95
:1013260011F0496E580E696E000E6A6E000E6B6EF5
:10133600DCEC0CF0496E140EE82EFED7580E696EE2
:10134600000E6A6E010E6B6EDCEC0CF0496E4A0EF6
:101356000001B96F000EBA6FBFC069F06A6A000E6D
:101366006C6E0A0E6B6E7BEC10F069500001BB6F61
:1013760028EC11F0496E570E696E000E6A6E000E6B
:101386006B6EDCEC0CF0496E140EE82EFED7570E91
:10139600696E000E6A6E010E6B6EDCEC0CF0496E27
:1013A6004A0E0001B96F000EBA6FBDC069F06A6AD5
:1013B600000E6C6E0A0E6B6E5EEC0FF0695000014B
:1013C600BB6F28EC11F0496E560E696E000E6A6E00
:1013D600000E6B6EDCEC0CF0496E140EE82EFED798
:1013E600560E696E000E6A6E010E6B6EDCEC0CF02A
:1013F600496E4A0E0001B96F000EBA6FBDC069F0A2
:101406006A6A000E6C6E0A0E6B6E7BEC10F0695009
:101416000001BB6F28EC11F0496E550E696E000E87
:101426006A6E000E6B6EDCEC0CF0496E140EE82E44
:10143600FED7550E696E000E6A6E010E6B6EDCEC01
:101446000CF0496E4A0E0001B96F000EBA6FBEC0AD
:1014560069F06A6A000E6C6E0A0E6B6E5EEC0FF037
:1014660069500001BB6F28EC11F0496E540E696E8D
:10147600000E6A6E000E6B6EDCEC0CF0496E140EFC
:10148600E82EFED7540E696E000E6A6E010E6B6E64
:10149600DCEC0CF0496E4A0E0001B96F000EBA6F13
:1014A600BEC069F06A6A000E6C6E0A0E6B6E7BEC4B
:1014B60010F069500001BB6F28EC11F0496E530E15
:1014C600696E000E6A6E000E6B6EDCEC0CF0496EF7
:1014D6001200000E306E4F0E596E000E5A6E300E10
:1014E6005B6E000E5C6E1FEC10F0496E3004D8A4E3
:1014F6007FEF0AF081EF0AF0EAEF0AF0000E306E95
:10150600500E596E000E5A6E300E5B6E000E5C6EFB
:101516001FEC10F0496E3004D8A494EF0AF096EF51
:101526000AF0BBEF0AF04804D8A49CEF0AF09EEF3D
:101536000AF0A2EF0AF00C0E486E51EF0BF048507D
:10154600800A730FD8B0AAEF0AF0ACEF0AF0B9EF31
:101556000AF04850800A7E0FD8A0B4EF0AF0B6EF22
:101566000AF0B9EF0AF0480651EF0BF051EF0BF015
:101576003050D8A4C1EF0AF0C3EF0AF051EF0BF0D8
:101586004750D8A4C9EF0AF0CBEF0AF0D1EF0AF022
:101596003B0E476E000E466E51EF0BF04750800A29
:1015A600440FD8B0D9EF0AF0DBEF0AF0B9EF0AF032
:1015B6004750800A7F0FD8A0E3EF0AF0E5EF0AF064
:1015C600B9EF0AF04706000E466E51EF0BF03050A9
:1015D600D8A4F0EF0AF0F2EF0AF051EF0BF0000E8C
:1015E600306E500E596E000E5A6E300E5B6E000E47
:1015F6005C6E1FEC10F0496E3004D8A405EF0BF0BA
:1016060007EF0BF029EF0BF04804D8A40DEF0BF011
:101616000FEF0BF013EF0BF0180E486E51EF0BF0B7
:101626004850800A670FD8B01BEF0BF01DEF0BF088
:10163600B9EF0AF04850800A7E0FD8A025EF0BF0CC
:1016460027EF0BF0B9EF0AF0B6EF0AF03050D8A446
:101656002FEF0BF031EF0BF051EF0BF04750D8A402
:1016660037EF0BF039EF0BF03BEF0BF0CBEF0AF057
:101676004750800A440FD8B043EF0BF045EF0BF00C
:10168600B9EF0AF04750800A7F0FD8A04DEF0BF054
:101696004FEF0BF0B9EF0AF0E5EF0AF01200000E7B
:1016A600306E4F0E596E000E5A6E300E5B6E000E87
:1016B6005C6E1FEC10F0496E3004D8A465EF0BF099
:1016C60067EF0BF0D0EF0BF0000E306E500E596E38
:1016D600000E5A6E300E5B6E000E5C6E1FEC10F044
:1016E600496E3004D8A47AEF0BF07CEF0BF0A3EF31
:1016F6000BF04850800A740FD8A084EF0BF086EFE9
:101706000BF08AEF0BF0010E486E36EF0CF04850E6
:10171600800A740FD8B092EF0BF094EF0BF0A1EFA4
:101726000BF04850800A7F0FD8A09CEF0BF09EEF7D
:101736000BF0A1EF0BF0482A36EF0CF036EF0CF069
:101746003050D8A4A9EF0BF0ABEF0BF036EF0CF04E
:101756004750800A440FD8A0B3EF0BF0B5EF0BF05B
:10176600BCEF0BF0482A000E476E000E466E36EFB1
:101776000CF04750800A440FD8B0C4EF0BF0C6EF08
:101786000BF0A1EF0BF047BECBEF0BF0CDEF0BF05C
:10179600A1EF0BF0472AB8EF0BF03050D8A4D6EFE4
:1017A6000BF0D8EF0BF036EF0CF0000E306E500E4B
:1017B600596E000E5A6E300E5B6E000E5C6E1FEC9C
:1017C60010F0496E3004D8A4EBEF0BF0EDEF0BF000
:1017D6000FEF0CF04850800A680FD8A0F5EF0BF019
:1017E600F7EF0BF0F9EF0BF086EF0BF04850800A9D
:1017F600680FD8B001EF0CF003EF0CF0A1EF0BF07F
:101806004850800A7F0FD8A00BEF0CF00DEF0CF0BC
:10181600A1EF0BF09EEF0BF03050D8A415EF0CF0B3
:1018260017EF0CF036EF0CF04750800A440FD8A0A3
:101836001FEF0CF021EF0CF023EF0CF0B5EF0BF0DF
:101846004750800A440FD8B02BEF0CF02DEF0CF068
:10185600A1EF0BF047BE32EF0CF034EF0CF0A1EF26
:101866000BF0CDEF0BF01200000E6B6E69506A1094
:10187600D8B440EF0CF042EF0CF054EF0CF069C016
:10188600D9FF6AC0DAFFDF30E832E832070B000121
:10189600B36F070EB36552EF0CF054EF0CF0B9EFCF
:1018A6000CF0010E6B6EDAEF0CF069C0D9FF6AC05E
:1018B600DAFFDF30E832E832070BB36F010EB46FA0
:1018C600B32B68EF0CF0D890B437B32F66EF0CF05B
:1018D6000001B451FF0AB56F69C0D9FF6AC0DAFFCB
:1018E600DF50070BB66FB651020D960EF324D96E74
:1018F600000EF420DA6EDECFB7F0DDCFB8F0B7C059
:10190600D9FFB8C0DAFFB551DF16DAEF0CF069C0BF
:10191600D9FF6AC0DAFFDF30E832E832070BB36F6F
:10192600010EB46FB32B9AEF0CF0D890B437B32FE7
:1019360098EF0CF069C0D9FF6AC0DAFFDF50070BD9
:101946000001B56FB551020D960EF324D96E000E47
:10195600F420DA6EDECFB6F0DDCFB7F0B6C0D9FF31
:10196600B7C0DAFFB451DF12DAEF0CF069C0D9FF65
:101976006AC0DAFFDFBCC2EF0CF0C5EF0CF0010E57
:10198600C6EF0CF0000EB36FB46BB451000AD8B4B6
:10199600CFEF0CF054EF0CF0B351000AD8B458EF67
:1019A6000CF0010AD8B48AEF0CF054EF0CF06B502F
:1019B6001200000E6C6E69506A10D8B4E5EF0CF098
:1019C600E7EF0CF0F9EF0CF069C0D9FF6AC0DAFF57
:1019D600DF30E832E832070B0001B36F070EB3655C
:1019E600F7EF0CF0F9EF0CF05EEF0DF0010E6C6EF8
:1019F60073EF0DF069C0D9FF6AC0DAFFDF30E83255
:101A0600E832070BB36F010EB46FB32B0DEF0DF079
:101A1600D890B437B32F0BEF0DF00001B451FF0A85
:101A2600B56F69C0D9FF6AC0DAFFDF50070BB66F22
:101A3600B651020D310EF324D96E000EF420DA6E83
:101A4600DECFB7F0DDCFB8F0B7C0D9FFB8C0DAFF48
:101A5600B551DF1673EF0DF069C0D9FF6AC0DAFF22
:101A6600DF30E832E832070BB36F010EB46FB32BE9
:101A76003FEF0DF0D890B437B32F3DEF0DF069C0AE
:101A8600D9FF6AC0DAFFDF50070B0001B56FB55109
:101A9600020D310EF324D96E000EF420DA6EDECF7D
:101AA600B6F0DDCFB7F0B6C0D9FFB7C0DAFFB45194
:101AB600DF1273EF0DF06B50B36FB46BB451000AC5
:101AC600D8B468EF0DF0F9EF0CF0B351000AD8B4B2
:101AD600FDEF0CF0010AD8B42FEF0DF0F9EF0CF082
:101AE6006C50120069506A10D8A47CEF0DF07EEF9E
:101AF6000DF0EEEF0DF0000E6D6E09EF0EF020EE1C
:101B060004F06950D9266A50DA22DF50D8A48EEF45
:101B16000DF090EF0DF093EF0DF0F18CB6EF0DF0A8
:101B260020EE04F06950D9266A50DA22DE04D8A4E1
:101B36009FEF0DF0A1EF0DF0A4EF0DF0F18AB6EFD7
:101B46000DF020EE04F06950D9266A50DA22020E12
:101B5600DE18D8A4B1EF0DF0B3EF0DF0B6EF0DF02F
:101B6600F188B6EF0DF0010E6D6E09EF0EF020EE66
:101B760004F06950D9266A50DA22DF50D8A4C6EF9D
:101B86000DF0C8EF0DF0CBEF0DF0F19CB6EF0DF0B8
:101B960020EE04F06950D9266A50DA22DE04D8A471
:101BA600D7EF0DF0D9EF0DF0DCEF0DF0F19AB6EFAF
:101BB6000DF020EE04F06950D9266A50DA22020EA2
:101BC600DE18D8A4E9EF0DF0EBEF0DF0B6EF0DF04F
:101BD600F198B6EF0DF020EE03F06950D9266A5061
:101BE600DA22DF506B6E6C6A6C50000AD8B4FEEFD6
:101BF6000DF07EEF0DF06B50000AD8B4BAEF0DF081
:101C0600010AD8B482EF0DF07EEF0DF06D50120090
:101C16002E2A462A000E306E010E2C6E4F0E596E7D
:101C2600000E5A6E300E5B6E000E5C6E1FEC10F0EE
:101C3600496E3004D8A422EF0EF024EF0EF052EFD6
:101C46000EF04650800A440FD8A02CEF0EF02EEF6F
:101C56000EF031EF0EF0000E466E472A4750800A0E
:101C6600440FD8A039EF0EF03BEF0EF040EF0EF028
:101C7600000E466E000E476E482A4850800A730FC3
:101C8600D8A048EF0EF04AEF0EF082EF0EF0000EED
:101C9600466E000E476E010E486E82EF0EF0305013
:101CA600D8A458EF0EF05AEF0EF082EF0EF0465021
:101CB600800A440FD8A062EF0EF064EF0EF067EFD3
:101CC6000EF0000E466E472A4750800A440FD8A0F1
:101CD6006FEF0EF071EF0EF076EF0EF0000E466E1F
:101CE600000E476E482A4850800A670FD8A07EEF3C
:101CF6000EF080EF0EF082EF0EF04AEF0EF01200BB
:101D0600000E306E520E696E000E6A6E300E6B6EED
:101D1600000E6C6EC1EC0FF03004D8A495EF0EF0F7
:101D260097EF0EF0F2EF0EF0000E2B6E000E2A6EFD
:101D3600000E296E000E306E510E696E000E6A6E30
:101D4600300E6B6E000E6C6EC1EC0FF03004D8A432
:101D5600AFEF0EF0B1EF0EF0B5EF0EF0000E306EF5
:101D6600F2EF0EF02AC0BDF029C0BEF02B5076EC83
:101D760009F02C04D8A4C2EF0EF0C4EF0EF09DEFCC
:101D86000EF0292A0C0E2B18D8A4CCEF0EF0CEEFAD
:101D96000EF0D6EF0EF0000E2B6E000E2A6E000E21
:101DA600296EEEEF0EF03C0E2918D8A4DDEF0EF0EA
:101DB600DFEF0EF0E2EF0EF02A2A000E296E3C0E3F
:101DC6002A18D8A4E9EF0EF0EBEF0EF0EEEF0EF0C6
:101DD6002B2A000E2A6E000E2C6E9DEF0EF0010EC1
:101DE600456E12004A0E0001BB6F000EBC6FF9EC87
:101DF60012F0496E000E0001BF6FBF51020D800E3A
:101E0600F324D96E000EF420DA6EDECF6DF0DDCF4E
:101E16006EF086EC12F0496E0001BF51020D800E85
:101E2600F324D96E000EF420DA6EDECF69F0DDCF32
:101E36006AF0010E6B6EDCEC0CF0496E0001BF2BF4
:101E4600050EBF6529EF0FF02BEF0FF000EF0FF037
:101E5600000EBE6FBE51020D3B0EF324D96E000E6E
:101E6600F420DA6EDECF6DF0DDCF6EF086EC12F088
:101E7600496E0001BE2B030EBE6544EF0FF046EF20
:101E86000FF02DEF0FF0A00E6C6E000E6D6E77EC5E
:101E960011F0496EAD0E0001B96F000EBA6FC6ECB7
:101EA60011F0496EA70E0001B96F000EBA6FC6ECAD
:101EB60011F0496E1200000E0001B46F6CBE68EF9F
:101EC6000FF066EF0FF06EEF0FF06B6C6C1ED8B074
:101ED6006C2A010EB46F6ABE75EF0FF073EF0FF048
:101EE6007BEF0FF0696C6A1ED8B06A2A010EB41B2C
:101EF600000EB66F000EB56F6B506C10D8B486EF3F
:101F06000FF088EF0FF0B0EF0FF0010EB36F90EF08
:101F16000FF0D8906B366C36B32B6CAE95EF0FF096
:101F260097EF0FF08CEF0FF0D890B537B6376B50B0
:101F3600695C6C506A58D8A0A3EF0FF0A5EF0FF0BC
:101F4600AAEF0FF06B50695E6C506A5AB581D89053
:101F56006C326B32B32F97EF0FF0B451D8B4B6EFA3
:101F66000FF0B8EF0FF0BCEF0FF0B56DB61FD8B09D
:101F7600B62BB5C069F0B6C06AF01200000E6D6EE1
:101F860069506A10D8B4CAEF0FF0CCEF0FF0E7EF44
:101F96000FF06B506C10D8B4D3EF0FF0D5EF0FF0F5
:101FA600E7EF0FF069C0D9FF6AC0DAFFDF30E83229
:101FB600E832070B0001B36F070EB365E5EF0FF0CC
:101FC600E7EF0FF0EBEF0FF0010E6D6E1DEF10F067
:101FD60069C0D9FF6AC0DAFFDF30E832E832070BA2
:101FE600B36F69C0D9FF6AC0DAFFDF50070BB46F61
:101FF600B451020D8C0EF324D96E000EF420DA6E65
:10200600DECFB5F0DDCFB6F0B5C0D9FFB6C0DAFF8A
:10201600DF50B76FB32B12EF10F0D890B733B32F52
:1020260010EF10F00001B751010B6BC0D9FF6CC067
:10203600DAFFDF6E6D501200000E626E59505A10B4
:10204600D8B428EF10F02AEF10F044EF10F05B50F0
:102056005C10D8B431EF10F033EF10F044EF10F00D
:1020660059C0D9FF5AC0DAFFDF30E832E832070B31
:102076005D6E070E5D6442EF10F044EF10F048EF1E
:1020860010F0010E626E79EF10F059C0D9FF5AC0F8
:10209600DAFFDF30E832E832070B5D6E59C0D9FF50
:1020A6005AC0DAFFDF50070B5E6E5E50020D8C0ED3
:1020B600F324D96E000EF420DA6EDECF5FF0DDCFAA
:1020C60060F05FC0D9FF60C0DAFFDF50616E5D2A45
:1020D6006FEF10F0D89061325D2E6DEF10F0615009
:1020E600010B5BC0D9FF5CC0DAFFDF6E62501200E5
:1020F600000E6E6E6ABE84EF10F082EF10F08AEF6B
:1021060010F0696C6A1ED8B06A2A010E6E6E6CBE3B
:1021160091EF10F08FEF10F095EF10F06B6C6C1ED6
:10212600D8B06C2A6B506C10D8B49CEF10F09EEFB0
:1021360010F0C2EF10F0010E6D6EA6EF10F0D89001
:102146006B366C366D2A6CAEABEF10F0ADEF10F05F
:10215600A2EF10F06B50695C6C506A58D8A0B6EFCD
:1021660010F0B8EF10F0BCEF10F06B50695E6C50D9
:102176006A5AD8906C326B326D2EADEF10F06E50FD
:10218600D8B4C8EF10F0CAEF10F0CEEF10F0696CBB
:102196006A1ED8B06A2A69C069F06AC06AF012007D
:1021A6006C506D10D8A4DAEF10F0DCEF10F006EFEB
:1021B60011F0000E6E6E26EF11F06CC0D9FF6DC0E7
:1021C600DAFFDECF69F0DDCF6AF0F4EC14F0010E31
:1021D6006E6E26EF11F06CC0D9FF6DC0DAFFDECF50
:1021E60069F0DDCF6AF0DFEC14F0EAEF10F06CC0B6
:1021F600D9FF6DC0DAFFDECF69F0DDCF6AF0CAEC39
:1022060014F0EAEF10F020EE04F06C50D9266D5071
:10221600DA22DF500001B36FB46BB451000AD8B4B0
:1022260017EF11F0DCEF10F0B351000AD8B4E0EF6D
:1022360010F0010AD8B4EEEF10F0030AD8B4FAEFA2
:1022460010F0DCEF10F06E5012000001B951BA1117
:10225600D8A430EF11F032EF11F03EEF11F0090E75
:10226600BB6538EF11F03AEF11F03EEF11F0010EB9
:10227600BC6F75EF11F0B9C069F0BAC06AF0BB5116
:10228600010B6B6EDCEC0CF00001BC6F010EB92586
:10229600696E000EBA216A6ED890BB31010B6B6E67
:1022A600DCEC0CF00001BC6F020EB925696E000E65
:1022B600BA216A6EBB41E8423F0B010B6B6EDCEC48
:1022C6000CF00001BC6F030EB925696E000EBA2131
:1022D6006A6EBB39E8461F0B010B6B6EDCEC0CF02B
:1022E6000001BC6FBC5112006C506D10D8A47EEF7B
:1022F60011F080EF11F083EF11F0000EC5EF11F031
:10230600D59E6CC069F06DC06AF095EC13F06CC098
:1023160069F06DC06AF008EC12F06CC069F06DC02F
:102326006AF0C1EC13F0F28AF29420EE04F06C50DD
:10233600D9266D50DA22DECFB3F0DDCFB4F0B4C0CB
:10234600B3F00001B46BB351D76E20EE04F06C50BD
:10235600D9266D50DA22DF50D66E20EE04F06C508E
:10236600D9266D50DA22DECF03F0DDCF04F06CC043
:10237600D9FF6DC0DAFFDECF05F0DDCF06F0F28EB5
:10238600F28CD58E1200000E0001BB6FB951BA1146
:10239600D8A4D0EF11F0D2EF11F0D6EF11F0000E65
:1023A600BB6F06EF12F0B9C069F0BAC06AF0C0ECB4
:1023B60012F00001BB13B9C069F0BAC06AF02FEC85
:1023C60013F00001BB13B9C069F0BAC06AF075EC2E
:1023D6000DF00001BB13B9C06CF0BAC06DF015EC7E
:1023E60014F00001BB13B9C06CF0BAC06DF0D3ECA9
:1023F60010F00001BB13B9C069F0BAC06AF047EC2F
:1024060012F00001BB13BB51120020EE06F069501A
:10241600D9266A50DA22DFA413EF12F015EF12F074
:1024260018EF12F0D59A46EF12F020EE06F069503A
:10243600D9266A50DA22DFB423EF12F025EF12F024
:1024460046EF12F0D58A20EE06F06950D9266A507A
:10245600DA22DFA231EF12F033EF12F036EF12F08C
:10246600D59846EF12F020EE06F06950D9266A504C
:10247600DA22DFB441EF12F043EF12F046EF12F02A
:10248600D58846EF12F0120069506A10D8A44EEFB4
:1024960012F050EF12F065EF12F0000E6D6E84EF41
:1024A60012F0F28EF28CF288010E6D6E84EF12F04D
:1024B600F28EF28CF08657EF12F0F28EF28CF088E4
:1024C60057EF12F020EE04F06950D9266A50DA224E
:1024D600DF506B6E6C6A6C50000AD8B475EF12F060
:1024E60050EF12F06B50000AD8B454EF12F0010A04
:1024F600D8B45BEF12F0030AD8B460EF12F050EFD5
:1025060012F06D5012006D506E10D8B48DEF12F0AF
:102516008FEF12F0A1EF12F06DC0D9FF6EC0DAFF97
:10252600DF30E832E832070B0001B96F070EB965F4
:102536009FEF12F0A1EF12F0A6EF12F0010E0001CC
:10254600BA6FBEEF12F06DC069F06EC06AF037EC7C
:102556000CF00001BA6F6DC069F06EC06AF06DC014
:10256600D9FF6EC0DAFF000EDFBE010E6B6EDCEC2B
:102576000CF00001BA6FBA51120069506A10D8A463
:10258600C7EF12F0C9EF12F0D8EF12F0000E6D6E21
:10259600F7EF12F0F298010E6D6EF7EF12F0F0966B
:1025A600CEEF12F0F098CEEF12F020EE04F0695064
:1025B600D9266A50DA22DF506B6E6C6A6C50000ABC
:1025C600D8B4E8EF12F0C9EF12F06B50000AD8B495
:1025D600CDEF12F0010AD8B4D2EF12F0030AD8B444
:1025E600D5EF12F0C9EF12F06D5012000001BB5189
:1025F600BC11D8A401EF13F003EF13F007EF13F0AB
:10260600010EBD6F2DEF13F0BBC06DF0BCC06EF0B8
:1026160086EC12F00001BD6F010EBB256D6E000E3B
:10262600BC216E6E86EC12F00001BD6F020EBB255A
:102636006D6E000EBC216E6E86EC12F00001BD6F51
:10264600030EBB256D6E000EBC216E6E86EC12F07D
:102656000001BD6FBD51120069506A10D8A436EF53
:1026660013F038EF13F043EF13F062EF13F0F2922A
:1026760062EF13F0F0903BEF13F0F0923BEF13F0A4
:1026860020EE04F06950D9266A50DA22DF506B6ECC
:102696006C6A6C50000AD8B453EF13F038EF13F09D
:1026A6006B50000AD8B43AEF13F0010AD8B43DEFE4
:1026B60013F0030AD8B440EF13F038EF13F012000A
:1026C600F60EF66E270EF76E000EF86E00EE80F030
:1026D60010EE33F00900F5CFEEFFE550E150FAE1D8
:1026E600120EF66E2A0EF76E000EF86E00EE31F040
:1026F60010EE28F00900F5CFEEFFE550E150FAE1C3
:102706000001C56BC46BC36BC26BC16BC06B00EEC3
:1027160001F0300EEE6AE806FDE16F906F9200015F
:102726001DEF15F020EE06F06950D9266A50DA2220
:10273600DFA0A0EF13F0A2EF13F0B2EF13F0D596DF
:1027460020EE03F06950D9266A50DA22DF506B6E0C
:10275600D5506B18F80B6B18D56EC0EF13F020EE42
:1027660006F06950D9266A50DA22DFB0BDEF13F0C1
:10277600BFEF13F0C0EF13F0D586120020EE06F07F
:102786006950D9266A50DA22DFA6CCEF13F0CEEFD5
:1027960013F0D1EF13F0D58CDFEF13F020EE06F037
:1027A6006950D9266A50DA22DFB6DCEF13F0DEEF85
:1027B60013F0DFEF13F0D59C1200F2940450D76E9D
:1027C60003C0D6FF05500610D8B4ECEF13F0EEEFB9
:1027D60013F0FAEF13F002D8FAEF13F00500FA6ED1
:1027E6000550FD6E0650FE6EFF6AFA50120012008A
:1027F600580057005600550054005300800F810FB3
:10280600820F830F840F920F930F940F950F960FDD
:10281600161C0003DC0B05D81451010200A416494E
:03282600010100AD
:10282A006C506D10D8A41CEF14F01EEF14F022EFB8
:10283A0014F0000E6E6E2BEF14F0020E6C24696E0B
:10284A00000E6D206A6E37EC0CF06E6E6E50120040
:10285A00F0921D501E10D8B435EF14F037EF14F073
:10286A0043EF14F002D843EF14F00500FA6E1D503E
:10287A00FD6E1E50FE6EFF6AFA5012001200F090B2
:10288A001F502010D8B44CEF14F04EEF14F05AEF4A
:10289A0014F002D85AEF14F00500FA6E1F50FD6EBC
:1028AA002050FE6EFF6AFA5012001200F292215076
:1028BA002210D8B463EF14F065EF14F071EF14F03E
:1028CA0002D871EF14F00500FA6E2150FD6E225005
:1028DA00FE6EFF6AFA5012001200596EF290095009
:1028EA000A10D8B47BEF14F07DEF14F087EF14F0E0
:1028FA005950D8A483EF14F085EF14F087EF14F041
:10290A0087EF14F01200596EF2900D500E10D8B4E1
:10291A0091EF14F093EF14F09DEF14F05950D8A4EE
:10292A0099EF14F09BEF14F09DEF14F09DEF14F063
:10293A001200596EF29011501210D8B4A7EF14F089
:10294A00A9EF14F0B3EF14F05950D8A4AFEF14F074
:10295A00B1EF14F0B3EF14F0B3EF14F01200596EA4
:10296A00F29015501610D8B4BDEF14F0BFEF14F062
:10297A00C9EF14F05950D8A4C5EF14F0C7EF14F0FA
:10298A00C9EF14F0C9EF14F0120069506A10D8A404
:10299A00D1EF14F0D3EF14F0D7EF14F0000E6B6EF2
:1029AA00DDEF14F069C01DF06AC01EF0010E6B6EF7
:1029BA006B50120069506A10D8A4E6EF14F0E8EFE1
:1029CA0014F0ECEF14F0000E6B6EF2EF14F069C025
:1029DA001FF06AC020F0010E6B6E6B501200695036
:1029EA006A10D8A4FBEF14F0FDEF14F001EF15F014
:1029FA00000E6B6E07EF15F069C021F06AC022F075
:102A0A00010E6B6E6B501200890F8A0F8B0F8C0FA1
:102A1A008D0F5200510050000101010101323B0C9F
:102A2A0001020A121A012B631B130B033A322A22E0
:102A3A00F5EC0EF047C0BDF046C0BEF0485076EC4B
:0E2A4A0009F083EC0EF01FEF15F007EF00F01F
:020000040030CA
:0E000000FF020912FF8181FF0FC00FE00F40C9
:00000001FF
